:020000040800F2
:1000000088070020550200080D1C0008751A00081A
:10001000091C00084D040008F11D00080000000044
:10002000000000000000000000000000BD1C0008EF
:100030007D04000800000000B91C0008151D000820
:100040006F0200086F0200086F0200086F020008CC
:100050006F0200086F0200086F0200086F020008BC
:100060006F0200086F0200086F0200086F020008AC
:100070006F0200086F0200086F0200086F0200089C
:100080006F0200086F0200086F0200086F0200088C
:100090006F0200086F0200086F0200086F0200087C
:1000A0006F0200086F0200086F0200086F0200086C
:1000B0006F0200086F0200086F0200086F0200085C
:1000C0006F0200086F0200086F0200086F0200084C
:1000D0006F0200086F0200086F0200086F0200083C
:1000E0006F0200086F0200086F0200086F0200082C
:1000F0006F0200086F0200086F0200086F0200081C
:100100006F0200086F0200086F0200086F0200080B
:100110006F0200086F0200086F0200086F020008FB
:100120006F0200086F0200086F0200086F020008EB
:100130006F0200086F0200086F0200086F020008DB
:100140006F0200086F0200086F0200086F020008CB
:100150006F0200086F0200086F0200086F020008BB
:100160006F0200086F0200086F0200086F020008AB
:100170006F0200086F0200086F0200080000000014
:100180006F0200086F02000800F002F800F052F859
:1001900014A696E8000CB244B344DA4501D100F04D
:1001A00049F8BAE80F000FA696E83000A5EB040561
:1001B00004EB0607AAEB0704A7F101074FEA1515A0
:1001C0004FEA3414A4F10104AC4201D300F032F838
:1001D00013F0010F18BFFB1A43F0010300F001F800
:1001E000DBE71847A81D0000C81D0000103A24BF17
:1001F00078C878C1FAD8520724BF30C830C144BF8C
:1002000004680C6070470000704700000023002461
:1002100000250026103A28BF78C1FBD8520728BF16
:1002200030C148BF0B6070471FB501F099FE1FBD7C
:1002300010B510BD00F0D0F81146FFF7F5FF01F042
:1002400021FE00F0EEF803B4FFF7F2FF03BC00F06C
:10025000F5F800000948804709480047FEE7FEE737
:10026000FEE7FEE7FEE7FEE7FEE7FEE7FEE7FEE766
:1002700004480549054A064B70470000DD1D00088B
:1002800089010008880100208807002088030020D9
:100290008803002053EA020C00F069802DE9F04B3E
:1002A0004FF00006002B1FBFB3FA83F503FA05F4E5
:1002B00024FA05F65E4012BF1643B2FA82F502FA3E
:1002C00005F4C5F120051EBF22FA05FC44EA0C0422
:1002D000203556EA044C4FEA144418BF641C4FF012
:1002E00000084FF00009904271EB030C39D300294C
:1002F00019BFB1FA81F701FA07F6B0FA80F700FAF0
:1003000007F6C7F120071EBF20FA07FC46EA0C06D5
:100310002037B6FBF4FCA7EB0507103F07F01F0BD7
:10032000CBF120062CFA06F60CFA0BFB44BFB346C1
:100330000026202FA4BF5E464FF0000B5BEA060CA0
:1003400008BF4FF0010B19EB0B0948EB0608ABFB9C
:10035000027C06FB02CC0BFB03CCC01B71EB0C0137
:10036000C1E70B46024641464846BDE8F08B13B54F
:10037000084318BF4FF0FF300146AFF30080BDE8DF
:100380001C4070474FF0000200B513469446964655
:10039000203922BFA0E80C50A0E80C50B1F1200198
:1003A000BFF4F7AF090728BFA0E80C5048BF0CC046
:1003B0005DF804EB890028BF40F8042B08BF7047A4
:1003C00048BF20F8022B11F0804F18BF00F8012B16
:1003D0007047704770477047754600F02BF8AE467F
:1003E00005006946534620F00700854618B020B541
:1003F000FFF73EFFBDE820404FF000064FF000073A
:100400004FF000084FF0000BAC46ACE8C009ACE878
:10041000C009ACE8C009ACE8C00921F007018D466D
:10042000704710B50446AFF300802046BDE8104089
:10043000FFF709BF0048704710000020014918204D
:10044000ABBEFEE72600020070470000FFE7FEE7B4
:1004500080B58AB00020069007900E210991059082
:100460000490029003900120089040F27000C2F2C4
:100470000000694600F032F80AB080BD7047000005
:1004800072B6FFE7FEE7000084B002900191029887
:1004900090F820008DF803009DF80300012805D096
:1004A000FFE79DF8030002280AD1FFE7019A0298AE
:1004B000016848691043486100208DF80F0008E08A
:1004C0000299486A40F48020486201208DF80F00AC
:1004D000FFE79DF80F0004B07047000086B004905D
:1004E0000391049800680190049890F820008DF81A
:1004F00003009DF80300012806D0FFE79DF80300E4
:10050000022840F0B080FFE746F20040C4F200004D
:1005100001900199D1F8000240F00100C1F80002F9
:100520000199D1F8000220F47C50C1F80002039830
:10053000426A0199D1F8000240EA0220C1F80002A3
:100540000398406900F01F01012088400290029A40
:100550000199D1F81C029043C1F81C020398C069AC
:10056000F0B9FFE7029A0199D1F80C029043C1F863
:100570000C02039A9088D168526940EA01400199BF
:1005800001EBC201C1F84002039A108891685269D8
:1005900040EA0140019901EBC201C1F84402FFE7C2
:1005A0000398C06901281ED1FFE7029A0199D1F88A
:1005B0000C021043C1F80C02039A9088116852692A
:1005C00040EA0140019901EBC201C1F84002039ADF
:1005D00090899168526940EA0140019901EBC2019A
:1005E000C1F84402FFE70398806940B9FFE7029A27
:1005F0000199D1F804029043C1F8040207E0029A7D
:100600000199D1F804021043C1F80402FFE70398EE
:10061000006940B9FFE7029A0199D1F814029043AA
:10062000C1F8140207E0029A0199D1F814021043AC
:10063000C1F81402FFE70398006A012808D1FFE718
:10064000029A0199D1F81C021043C1F81C02FFE77D
:100650000199D1F8000220F00100C1F80002002049
:100660008DF8170008E00499486A40F48020486239
:1006700001208DF81700FFE79DF8170006B07047BE
:1006800080B584B00290029820B9FFE701208DF870
:100690000F00E0E0029890F8200020B9FFE70298F0
:1006A00000F0DEF8FFE702980168086840F00100FA
:1006B000086000F057FB0190FFE70298006840686F
:1006C000C007A8B9FFE700F04DFB0199401A0B28BD
:1006D0000DD3FFE70299486A40F40030486202995E
:1006E000052081F8200001208DF80F00B3E0E4E739
:1006F00002980168086820F00200086000F032FBF0
:100700000190FFE70298006840688007002815D52F
:10071000FFE700F027FB0199401A0B280DD3FFE7F4
:100720000299486A40F4003048620299052081F835
:10073000200001208DF80F008DE0E3E70298007E95
:10074000012807D1FFE702980168086840F080009F
:10075000086006E002980168086820F080000860E0
:10076000FFE70298407E012807D1FFE70298016861
:10077000086840F04000086006E0029801680868D8
:1007800020F040000860FFE70298807E012807D132
:10079000FFE702980168086840F02000086006E062
:1007A00002980168086820F020000860FFE70298BE
:1007B000C07E012807D1FFE702980168086820F091
:1007C0001000086006E002980168086840F0100018
:1007D0000860FFE70298007F012807D1FFE7029831
:1007E0000168086840F00800086006E002980168A7
:1007F000086820F008000860FFE70298407F0128A1
:1008000007D1FFE702980168086840F0040008601B
:1008100006E002980168086820F004000860FFE71D
:10082000029B19685A689868D3F80CC040EA0C001B
:10083000D3F810C040EA0C005B691843013A10433A
:10084000C861029900204862029A012182F82010B2
:100850008DF80F00FFE79DF80F0004B080BD000089
:1008600080B588B007900020069005900490039012
:1008700002900798006846F20041C4F200018842E5
:1008800033D1FFE7FFE70020019043F64000C4F2B8
:100890000200016841F000710160006800F0007022
:1008A00001900198FFE7FFE70020009043F6300039
:1008B000C4F20200016841F008010160006800F024
:1008C000080000900098FFE70320029002210391A6
:1008D0000021049105900920069040F60040C4F2E2
:1008E000020002A900F04AF8FFE708B080BD00004E
:1008F00080B584B00290029890F8200001282FD192
:10090000FFE70299022081F8200002980168086838
:1009100020F00100086000F025FA0190FFE702983E
:1009200000684068C007A8B1FFE700F01BFA019912
:10093000401A0B280DD3FFE70299486A40F40030B3
:1009400048620299052081F8200001208DF80F00EF
:100950000FE0E4E70299002048628DF80F0008E0FC
:100960000299486A40F40020486201208DF80F0087
:10097000FFE79DF80F0004B080BD00008EB00D9021
:100980000C9100200A90099008900B90FFE70B98BB
:100990000F2800F2CC81FFE70B99012088400A90D4
:1009A0000C9800680A990840099009980A998842A9
:1009B00040F0B881FFE70C98406800F00300012880
:1009C00007D0FFE70C98406800F0030002282FD101
:1009D000FFE70D98806808900B984100032000FA0B
:1009E00001F10898884308900C98C0680B99490059
:1009F00000FA01F108980843089008980D9988605A
:100A00000D98406808900B99012000FA01F10898B0
:100A1000884308900C984068C0F300100B9900FAC6
:100A200001F108980843089008980D994860FFE77D
:100A30000C98406800F00300032818D0FFE70D98D9
:100A4000C06808900B984100032000FA01F1089853
:100A5000884308900C9880680B99490000FA01F1CE
:100A600008980843089008980D99C860FFE70C980B
:100A7000406800F00300022826D1FFE70D980B998B
:100A80006FF0030202EA51010844006A08900B98D3
:100A900000F0070081000F2000FA01F10898884358
:100AA00008900C9800690B9901F00701890000FA81
:100AB00001F108980843089008980D990B9B02EAE9
:100AC000530211440862FFE70D98006808900B98E4
:100AD0004100032000FA01F10898884308900C981F
:100AE000406800F003000B99490000FA01F10898F2
:100AF0000843089008980D9908600C988079800741
:100B0000002800F00E81FFE7FFE70020079043F682
:100B10004400C4F20200016841F4804101600068B1
:100B200000F4804007900798FFE70B9820F003003F
:100B300043F60801C4F20101405808900B9800F0F8
:100B4000030081000F2000FA01F108988843089003
:100B50000D980021C4F20201884203D1FFE7002072
:100B600006905EE00D9840F20041C4F20201884216
:100B700003D1FFE70120059050E00D9840F60001F9
:100B8000C4F20201884203D1FFE70220049042E050
:100B90000D9840F60041C4F20201884203D1FFE7FC
:100BA0000320039034E00D9841F20001C4F20201E9
:100BB000884203D1FFE70420029026E00D9841F21D
:100BC0000041C4F20201884203D1FFE705200190F1
:100BD00018E00D9841F60001C4F20201884203D1E9
:100BE000FFE7062000900AE00D9941F60042C4F2AA
:100BF00002020820914208BF07200090FFE70098FA
:100C00000190FFE701980290FFE702980390FFE749
:100C100003980490FFE704980590FFE70598069075
:100C2000FFE70698C0B20B9901F00301890000FAB2
:100C300001F108980843089008980B9921F00301E6
:100C400043F60802C4F20102885043F60840C4F299
:100C500001000068089009990898884308900C984A
:100C60008079C006002805D5FFE709990898084350
:100C70000890FFE7089843F60841C4F201010860B4
:100C800043F60C40C4F201000068089009990898E6
:100C9000884308900C9880798006002805D5FFE7E6
:100CA0000999089808430890FFE7089843F60C4113
:100CB000C4F20101086043F60440C4F20100006878
:100CC000089009990898884308900C9880798007C3
:100CD000002805D5FFE70999089808430890FFE721
:100CE000089843F60441C4F20101086043F600404D
:100CF000C4F2010000680890099908988843089098
:100D00000C988079C00728B1FFE709990898084333
:100D10000890FFE7089843F60041C4F2010108601B
:100D2000FFE7FFE7FFE70B9801300B902FE60EB0CF
:100D30007047000082B00190ADF802108DF80120DC
:100D40009DF8010028B1FFE7BDF802000199886114
:100D500005E0BDF80200000401998861FFE702B0D8
:100D60007047000040F28010C2F200000068704737
:100D700040F20400C2F20000027840F28011C2F298
:100D800000010868104408607047000080B543F611
:100D90000041C4F20201086840F40070086008686D
:100DA00040F480600860086840F4807008600320A8
:100DB00000F080F80F2000F005F800F03BF800206C
:100DC00080BD000080B582B0009040F20000C2F209
:100DD0000000006840F20401C2F200010A784FF4FA
:100DE0007A71B1FBF2F1B0FBF1F000F03BFE20B103
:100DF000FFE701208DF8070018E000980F280DD8B4
:100E0000FFE700994FF0FF30002200F039F800981A
:100E100040F20801C2F20001086003E001208DF8F1
:100E2000070003E000208DF80700FFE79DF80700AA
:100E300002B080BD82B0FFE70020019043F644007D
:100E4000C4F20200016841F480410160006800F4CE
:100E5000804001900198FFE7FFE70020009043F6F3
:100E60004000C4F20200016841F080510160006856
:100E700000F0805000900098FFE702B0704700003B
:100E800080B586B08DF8170004910392002002907F
:100E900000F0B0FF02909DF91700019002980499AC
:100EA000039A00F0B5FE0146019800F0ABFF06B0D2
:100EB00080BD000080B582B00190019800F0C4FFB1
:100EC00002B080BD80B584B002900191029820B933
:100ED000FFE701208DF80F0021E1019843F6004162
:100EE000C4F20201096801F00701884212D9FFE744
:100EF000019943F60040C4F202000170006800F05E
:100F000007000199884204D0FFE701208DF80F0007
:100F100005E1FFE702980078800700282AD5FFE75F
:100F2000029800784007002809D5FFE743F608013A
:100F3000C4F20201086840F4E0500860FFE702983C
:100F400000780007002809D5FFE743F60801C4F23E
:100F50000201086840F460400860FFE743F60801BA
:100F6000C4F20201086820F0F000029A926810436F
:100F70000860FFE702980078C00700286ED0FFE7FE
:100F800002984068012811D1FFE743F60000C4F23F
:100F90000200006800F400310020B0EB514F04D192
:100FA000FFE701208DF80F00B9E02CE002984068BF
:100FB000022805D0FFE702984068032811D1FFE717
:100FC00043F60000C4F20200006800F00071002047
:100FD000B0EB516F04D1FFE701208DF80F009EE0C8
:100FE00010E043F60000C4F20200006800F00201C5
:100FF0000020B0EB510F04D1FFE701208DF80F0066
:101000008DE0FFE7FFE743F60801C4F2020108683C
:1010100020F00300029A526810430860FFF7A2FE16
:101020000090FFE743F60800C4F20200006800F0F9
:101030000C0002994968B0EB810F0ED0FFE7FFF773
:1010400091FE0099401A41F28931884204D3FFE7AA
:1010500003208DF80F0062E0E4E7FFE7019843F614
:101060000041C4F20201096801F00701884212D26E
:10107000FFE7019943F60040C4F2020001700068E6
:1010800000F007000199884204D0FFE701208DF8A5
:101090000F0044E0FFE702980078400700280CD5D5
:1010A000FFE743F60801C4F20201086820F4E050AB
:1010B000029AD26810430860FFE7029800780007A0
:1010C00000280DD5FFE743F60801C4F202010868C5
:1010D00020F46040029A126940EAC2000860FFE70B
:1010E00000F022F843F60801C4F202010968C9B20F
:1010F0000A0941F67A71C0F60001895CC84040F2E5
:101100000001C2F20001086040F20800C2F20000D3
:101110000068FFF757FE00208DF80F00FFE79DF8ED
:101120000F0004B080BD000080B586B0002005909F
:1011300004900390029043F60800C4F20200006895
:1011400000F00C000146019140B1FFE7019804282E
:101150000AD0FFE7019808280CD04FE042F2004087
:10116000C0F2F40002904FE047F64000C0F27D105C
:10117000029049E043F60400C4F20200016801F065
:101180003F01059100684002002813D5FFE743F6B0
:101190000400C4F202000068C0F3881047F6400162
:1011A000C0F27D11A0FB0101059A0023FFF772F840
:1011B000049012E043F60400C4F202000068C0F399
:1011C000881042F20041C0F2F401A0FB0101059A2F
:1011D0000023FFF75FF80490FFE743F60400C4F232
:1011E0000200006800F44031022000EBD13003908F
:1011F00004980399B0FBF1F0029005E042F2004040
:10120000C0F2F4000290FFE7029806B080BD000033
:1012100080B586B00490049820B9FFE701208DF8CE
:10122000170050E304980078C007002800F0A5805C
:10123000FFE743F60800C4F20200006800F00C006B
:10124000042813D0FFE743F60800C4F20200006848
:1012500000F00C0008281ED1FFE743F60400C4F29A
:10126000020000684002002815D5FFE743F60000A1
:10127000C4F20200006800F400310020B0EB514FCE
:1012800008D0FFE70498406820B9FFE701208DF8F7
:10129000170018E370E0FFE704984068B0F5803F5E
:1012A00009D1FFE743F60001C4F20201086840F4E7
:1012B0008030086020E004984068B0F5A02F0DD180
:1012C000FFE743F60001C4F20201086840F4802001
:1012D0000860086840F4803008600CE043F60001C4
:1012E000C4F20201086820F480300860086820F425
:1012F00080200860FFE7FFE7FFE704984068E8B157
:10130000FFE7FFF72FFD0390FFE743F60000C4F26D
:101310000200006800F400310020B0EB514F0CD106
:10132000FFE7FFF71FFD0399401A652804D3FFE785
:1013300003208DF81700C6E2E7E71CE0FFF712FD77
:101340000390FFE743F60000C4F20200006800F4D7
:1013500000310020B0EB514F0CD0FFE7FFF702FD4A
:101360000399401A652804D3FFE703208DF817007E
:10137000A9E2E7E7FFE7FFE7FFE7049800788007C7
:10138000002840F19680FFE743F60800C4F202000F
:10139000006810F00C0F13D0FFE743F60800C4F20A
:1013A0000200006800F00C0008282CD1FFE743F68B
:1013B0000400C4F2020000684002002823D4FFE7C2
:1013C00043F60000C4F20200006800F002010020B1
:1013D000B0EB510F09D0FFE70498C068012804D092
:1013E000FFE701208DF817006DE243F60001C4F21B
:1013F0000201086820F0F800049A126940EAC2006D
:101400000860FFE754E00498C06870B3FFE700216C
:10141000C4F2472101200860FFF7A4FC0390FFE716
:1014200043F60000C4F20200006800F00201002050
:10143000B0EB510F0CD1FFE7FFF794FC0399401A72
:10144000032804D3FFE703208DF817003BE2E7E70A
:1014500043F60001C4F20201086820F0F800049A83
:10146000126940EAC200086021E00021C4F247216D
:1014700000200860FFF776FC0390FFE743F60000CA
:10148000C4F20200006800F002010020B0EB510F2E
:101490000CD0FFE7FFF766FC0399401A032804D33A
:1014A000FFE703208DF817000DE2E7E7FFE7FFE70E
:1014B000FFE704980078000700284BD5FFE7049861
:1014C000406918B3FFE740F68061C4F2472101206C
:1014D0000860FFF747FC0390FFE743F67400C4F28F
:1014E0000200006800F002010020B0EB510F0CD1A7
:1014F000FFE7FFF737FC0399401A032804D3FFE7FF
:1015000003208DF81700DEE1E7E722E040F6806176
:10151000C4F2472100200860FFF724FC0390FFE796
:1015200043F67400C4F20200006800F002010020DB
:10153000B0EB510F0CD0FFE7FFF714FC0399401AF2
:10154000032804D3FFE703208DF81700BBE1E7E78A
:10155000FFE7FFE7049800784007002840F1CE80BD
:10156000FFE700208DF8070043F64000C4F20200B8
:101570000068C000002815D4FFE7FFE700200090B6
:1015800043F64000C4F20200016841F0805101605E
:10159000006800F0805000900098FFE701208DF86F
:1015A0000700FFE747F20000C4F200000068C00532
:1015B000002822D4FFE747F20001C4F200010868C6
:1015C00040F480700860FFF7CDFB0390FFE747F21F
:1015D0000000C4F200000068C00500280CD4FFE73A
:1015E000FFF7C0FB0399401A032804D3FFE7032049
:1015F0008DF8170067E1EAE7FFE7FFE704988068E6
:10160000012809D1FFE743F67001C4F2020108681E
:1016100040F0010008601FE00498806805280DD1A3
:10162000FFE743F67001C4F20201086840F00400CD
:101630000860086840F0010008600CE043F67001A3
:10164000C4F20201086820F001000860086820F078
:1016500004000860FFE7FFE7FFE704988068F8B13F
:10166000FFE7FFF77FFB0390FFE743F67000C4F24C
:101670000200006800F002010020B0EB510F0ED113
:10168000FFE7FFF76FFB0399401A41F28931884267
:1016900004D3FFE703208DF8170014E1E5E71EE00F
:1016A000FFF760FB0390FFE743F67000C4F202000F
:1016B000006800F002010020B0EB510F0ED0FFE7F0
:1016C000FFF750FB0399401A41F28931884204D355
:1016D000FFE703208DF81700F5E0E5E7FFE79DF849
:1016E0000700012809D1FFE743F64001C4F20201D7
:1016F000086820F080500860FFE7FFE704988069E1
:10170000002800F0DC80FFE743F60800C4F2020086
:10171000006800F00C00082800F08580FFE70498BE
:10172000806902285CD1FFE76021C4F247210020D4
:101730000860FFF717FB0390FFE743F60000C4F2D1
:101740000200006800F000710020B0EB516F0CD077
:10175000FFE7FFF707FB0399401A032804D3FFE7CD
:1017600003208DF81700AEE0E7E70499C869D1F8C7
:1017700020C04B6A8A6A40EA0C0040EA8310D20318
:101780004FF6FF739A43A2F580321043C96A40EACC
:10179000016043F60401C4F2020108606021C4F252
:1017A000472101200860FFF7DDFA0390FFE743F6C9
:1017B0000000C4F20200006800F000710020B0EBED
:1017C000516F0CD1FFE7FFF7CDFA0399401A0328B8
:1017D00004D3FFE703208DF8170074E0E7E721E06A
:1017E0006021C4F2472100200860FFF7BBFA039094
:1017F000FFE743F60000C4F20200006800F0007149
:101800000020B0EB516F0CD0FFE7FFF7ABFA039964
:10181000401A032804D3FFE703208DF8170052E095
:10182000E7E7FFE74AE004988069012804D1FFE771
:1018300001208DF8170046E043F60400C4F20200D0
:101840000068029004988069012831D0FFE702986F
:1018500000F480000499C969884229D1FFE7029801
:1018600000F03F000499096A884221D1FFE70298FD
:1018700047F6C07108400499496AB0EB811F17D13F
:10188000FFE7029800F440300499896AC9034FF6D3
:10189000FF729143A1F58031884209D1FFE7029898
:1018A00000F070600499C96AB0EB016F04D0FFE7E3
:1018B00001208DF8170006E0FFE7FFE7FFE70020B3
:1018C0008DF81700FFE79DF8170006B080BD0000F7
:1018D00080B584B00290029820B9FFE701208DF80E
:1018E0000F0072E00298406A60B9FFE70298406812
:1018F000B0F5827F01D1FFE703E002990020C861C3
:10190000FFE705E002990020086102994861FFE7BE
:10191000029900208862029890F8510040B9FFE7D0
:101920000299002081F85000029800F053F8FFE778
:101930000299022081F8510002980168086820F09D
:1019400040000860029A019211685068D2F808C0FD
:10195000D36800F482700CF4044C604403F4006318
:101960001844136903F002031844536903F0010398
:101970001844936903F400731844D36903F03803DF
:101980001844136A03F080031843926A02F4005269
:1019900010430860029801688369426A042000EAE3
:1019A000134002F010021044486002980168C869B0
:1019B00020F40060C861029900204865029A012164
:1019C00082F851108DF80F00FFE79DF80F0004B06A
:1019D00080BD000080B588B007900020069005907B
:1019E0000490039002900798006843F20001C4F24B
:1019F0000101884234D1FFE7FFE70020019043F660
:101A00004400C4F20200016841F4805101600068A2
:101A100000F4805001900198FFE7FFE7002000905C
:101A200043F63000C4F20200016841F00201016097
:101A3000006800F0020000900098FFE73820029054
:101A400002200390002004900320059005200690BA
:101A500040F20040C4F2020002A9FEF78FFFFFE748
:101A600008B080BD80B582B00190019800F028F9DF
:101A700002B080BDFFE7FEE780B582B040F27000A3
:101A8000C2F20000009046F20041C4F20001016081
:101A900006214160002101918160C1604FF4003254
:101AA00002614FF400124261017641768176C1767F
:101AB00001774177FEF7E4FD18B1FFE7FEF7E0FCA0
:101AC000FFE702B080BD000080B58EB000200D9011
:101AD0000C900B900A900990FFE70020089043F6C5
:101AE0003000C4F20200016841F0020101600068A8
:101AF00000F0020008900898FFE7FFE70020079039
:101B000043F63000C4F20200016841F04001016078
:101B1000006800F0400007900798FFE7FFE700200B
:101B2000069043F63000C4F20200016841F0010162
:101B30000160006800F0010006900698FFE7FFE7EB
:101B40000020059043F63000C4F20200016841F025
:101B500008010160006800F0080005900598FFE7A3
:101B6000FFE70020049043F63000C4F20200016851
:101B700041F080010160006800F08000049004984A
:101B8000FFE741F60000C4F2020003904FF4005159
:101B9000019101220292FFF7CDF8019A0299039870
:101BA00009920A9100210B910C9109A9FEF7E6FE1A
:101BB0000EB080BD80B582B040F29800C2F2000045
:101BC000019043F20001C4F2010101604FF48271FF
:101BD000416000218160C1600222026141614FF4D5
:101BE000007282613822C261802202624162816297
:101BF0000A21C162FFF76CFE18B1FFE7FEF740FC57
:101C0000FFE702B080BD0000FFE7FEE7FFE7FEE769
:101C100088B0079006910592079800F0070004909D
:101C20000498C0F10700052803D3FFE704200190C2
:101C300004E00498C0F107000190FFE701980390C9
:101C400004980430062803D8FFE70020009003E042
:101C5000049803380090FFE70098029006980399D3
:101C6000012202FA01F101390840029B98400599CE
:101C70009A40013A1140084308B0704786B0059079
:101C80008DED040ACDED030A8DED021ACDED011A9A
:101C90008DED002A0498059908600398059948601D
:101CA00002980599886001980599886100980599BE
:101CB000086206B0704700007047000070470000DF
:101CC00080B582B0009000980138B0F1807F03D3D6
:101CD000FFE70120019019E0009801384EF214014D
:101CE000CEF2000108604FF0FF300F2100F08AF8BB
:101CF0004EF21801CEF20001002008604EF21002F0
:101D0000CEF20002072111600190FFE7019802B0B6
:101D100080BD000080B5FFF72BF880BD80B594B082
:101D200008A83021FEF72EFB0020079006900590B2
:101D300004900390FFE70020029043F64000C4F2B5
:101D40000200016841F080510160006800F080509D
:101D500002900298FFE7FFE70020019047F20000A1
:101D6000C4F20000016841F480410160006800F4A1
:101D7000804001900198FFE7012008904FF48030E7
:101D8000099002200E904FF480010F9119211091BB
:101D90004FF4A871119112900420139008A8FFF736
:101DA00037FA18B1FFE7FEF76BFBFFE70F20039050
:101DB00002200490002005904FF4A05006904FF4AC
:101DC0008050079003A80521FFF77CF818B1FFE7C2
:101DD000FEF756FBFFE714B080BD00004EF68851B9
:101DE000CEF20001086840F47000086070470000FF
:101DF000FFE7FEE74EF60C50CEF200000068C0F39D
:101E00000220704782B08DF8070000919DF907000D
:101E100000280AD4FFE7009800019DF907104EF250
:101E20000042CEF2000288540BE0009800019DF8B9
:101E3000071001F00F014EF61452CEF20002885442
:101E4000FFE702B07047000083B00290029800F0F4
:101E5000070000904EF60C51CEF200010868019088
:101E600001984FF6FF02104001900198009A40EA55
:101E700002200022C0F2FA5210430190019808603B
:101E800003B0704780B586B000200590FEF77EFF56
:101E9000FFF744FFFFF718FEFFF7EEFDFFF78AFE9E
:101EA00040F27000C2F200000090FEF721FDFEF744
:101EB000CFFA00980221FEF7E7FA40F2F000C2F2F2
:101EC00000009FED230A8DED010A9FED221A8DED92
:101ED000021ADFED211ACDED031A9FED202A8DEDB8
:101EE000042AF0EE410AFFF7C9FE9DED010A9DEDBF
:101EF000021ADDED031A9DED042A40F25C10C2F2D5
:101F00000000F0EE410AFFF7B9FE9DED010A9DEDDC
:101F1000021ADDED031A9DED042A40F23810C2F2D8
:101F20000000F0EE410AFFF7A9FE9DED010A9DEDCC
:101F3000021ADDED031A9DED042A40F21410C2F2DC
:101F40000000F0EE410AFFF799FEFFE7FEE700BF51
:101F50000000C8420000000000007A440000FA447B
:101F6000F1EE100A4FF6FF71C0F2C03120EA010015
:101F700040F04070E1EE100A7047000000000000E1
:101F8000000001020304060708090000B01F000852
:101F90000000002010000000EC010008C01F000835
:101FA00010000020780700000C020008000000006C
:101FB0000024F400010000001000000000000000F8
:040000050800018965
:00000001FF
